:020000020000FC
:040000000C947200EA
:1000E4000FEF0DBF01E20EBF00EF00930A010FEF07
:1000F40000BB01B9002701BB02B908E301D11AD141
:1001040008E3FED017D108E3FBD014D108E3F8D0FC
:1001140011D108E3F5D00ED108E0F2D00BD101E003
:10012400EFD008D106E0ECD005D10EE0E9D002D141
:100134005527662788277727AA2799273FEE22275E
:1001440030930B010FEF0A95F1F7009109010F703D
:100154000F3061F031E01127402F432319F40DD003
:100164000C94A0001395330F0C94AE00233031F39C
:100174000894331F23950C94A200233001F113300B
:10018400E1F0012F000F010F020F0395442787FDB3
:100194004395EE0CFF1CEE0CFF1CEE0CFF1C770FBE
:1001A400881F7E0D8F1D700FEE248E1D40FD40684C
:1001B400842F40E3040F0C945B010C94410113FD64
:1001C4000C94600162FD606162600E946301103002
:1001D40029F0113039F0123049F0089560600DE2D1
:1001E4000C945B0161600BE20C945B010DE393D012
:1001F400A1D064FD0C94320163FD0C943801A7FF77
:100204000C940A010DE287D095D0A0959195606178
:1002140044270AE0112722279017A40718F0000F9B
:100224004795FACF0A30DD244D0588F09017A407CE
:1002340020F0901BA40B1395F5CFF09030001F0D08
:10024400012F69D077D0112706954795EBCF65FD2F
:100254000C942E010C943E01A09591950C943E01B2
:1002640009E459D067D039D00C943E010FE453D03F
:1002740061D033D00C943E0166270C946001213088
:1002840009F008950027442787FD4395EE0CFF1CD1
:10029400EE0CFF1CEE0CFF1C770F881F7E0D8F1DCC
:1002A400700FEE248E1D40FD4068842F00E30C94F3
:1002B4005B01002F30D03ED00E946F010E94AF013D
:1002C400089560FD05C0970FA81F0BF4636008959F
:1002D400971BA80BE3F7636008955395503151F0D1
:1002E400503209F008951798159801E009D022D0EA
:1002F400552708951798159800EC02D01BD008953F
:1003040001BB0000169A00000000000016980000CF
:1003140000000000089501BB179A000000000000CF
:10032400169A00000000000016980000000000006B
:10033400179808950F93002700BB01BB159A00007E
:10034400169A0000000000000FB1169807FDF7CFC1
:1003540015980FEF00BB0F9108958F938EE104D091
:100364008A95E9F78F9108958F939F939CE98CE385
:100374000197F1F79F918F9100000000000008950C
:00000001FF
