:020000020000FC
:0C0000000C9433000C9432000C9432007D
:10005C000C943A000C94320018950FEF07B9CFEFBF
:10006C00D1E2CDBFDEBF24C00FB70F93DF93CF9388
:10007C009F938F9380910202909103020196803D91
:10008C0003E0900751F408B1010F003F08F402C0DF
:10009C000395037008B988279927809302029093DF
:1000AC0003028F919F91CF91DF910F910FBF189504
:1000BC0014E000E008B9C2E0D2E0002709930883FD
:1000CC00002704BD03E005BD01E000936E007894A9
:0200DC00FFCF54
:00000001FF
