:020000020000FC
:0A0000005AE0F52E55270C9472000B
:04005C000C94A90057
:04000C000C94170138
:1000E4000FEF0DBF01E20EBF0FEF00BB01B90027F8
:1000F40001BB02B908E3A7D0C0D0DBD008E3A3D08A
:10010400BCD0CED008E39FD0B8D008E39CD0B5D003
:1001140008E099D0B2D001E096D0AFD006E093D0F9
:10012400ACD00EE090D0A9D01FEF17B9112718B9A1
:100134001AB91BB910E2109369001DB314601DBBFA
:1001440078940C94F7007F9D702D812D08954FB7FE
:100154004F93DF93CF939F938F938091000290915D
:10016400010201968D3043E09407A1F5ECDF1F9363
:100174006627172F372F982F24E6121724F0121B07
:100184006395312FFACF243621F02A3039F021300B
:1001940051F0C62E2AE0132F6627EFCFD62E21E08A
:1001A400132F6627EACFE62E6627913031F432E02A
:1001B400C30E35E0D30E36E0E30E1F9140E3C40EC8
:1001C400D40EE40E1CD07727C0E0D2E01127199397
:1001D400188304C080930002909301028F919F9131
:1001E400CF91DF914F914FBF189510E014BD12E0ED
:1001F40015BD11E010936E0078940C94240102E074
:1002040022D03BD00C2D2AD038D00D2D27D035D07C
:100214000E2D24D032D002E721D02FD00FE21ED0F1
:100224002CD003E71BD029D008955F935FB75F9369
:10023400B39454E0B51611F4BB2473955F915FBF7A
:100244005F911895FFCF01BB0000169A00000000D3
:1002540000001698000000000000089501BB179AE2
:10026400000000000000169A00000000000016982C
:10027400000000000000179808950F93002700BBAA
:1002840001BB159A0000169A0000000000000FB18F
:10029400169807FDF7CF15980FEF00BB0F9108953F
:1002A4008F939F939FE08CE90197F1F79F918F9132
:0E02B4000895F6DFF5DFF4DFF3DFF2DF0895E3
:00000001FF
