:020000020000FC
:10000000E0E0F2E0C9E1D2E0A2E3B2E0002711278C
:1000100022273327442766277727153030F011270A
:10002000053089F003950C940D00502F510F51931A
:10003000502F511B599355275D935D93153069F3EC
:1000400013950C941500002711272227E0E0F2E019
:10005000C9E1D2E0A2E3B2E0153044F011272597C0
:10006000053011F1039535960C942C00253054F091
:10007000222735976997153079F3139512962196B3
:100080000C943600308148816D916D913297340324
:10009000600D711D6D937D933297253039F3239553
:0A00A000319625960C944200FFCF24
:00000001FF
