:020000020000FC
:040000000C947200EA
:1000E4000FEF0DBF01E20EBF00EF00930A010FEF07
:1000F40000BB01B9002701BB02B900E35ED277D28D
:100104000E940C0300E359D272D20E940C0300E354
:1001140054D26DD20E940C0300E34FD268D20E94E5
:100124000C0300E34AD263D20E940C0308E045D2D8
:100134005ED20E940C0301E040D259D20E940C030B
:1001440006E03BD254D20E940C030EE036D24FD2CA
:100154000E940C035527AA27662777278827992703
:10016400AA273FEE222730930B010FEF0A95F1F7F0
:10017400009109010F700F3061F031E01127402F19
:10018400432319F40DD00C94B3001395330F0C943E
:10019400C100233031F30894331F23950C94B50028
:1001A400233031F1133011F1012F000F010F020F31
:1001B400039544270F934F93F92EE82E002797FDBC
:1001C4000395EE0CFF1CEE0CFF1CEE0CFF1C880FBD
:1001D400991F8E0D9F1D00FD97604F910F91800F09
:1001E400941FAA7F40E3040F0C94CE020C94AC023B
:1001F400A760A5FFA87FA560103041F01130B1F0D1
:10020400123021F1A76004E40C94CE02F72EE62EFE
:10021400D92EC82EEC18FD08A97F0BF4A6607F2DFB
:100224006E2D992788270DE20C94CE02F72EE62E28
:10023400D92EC82EEC0CFD1CA97F0BF4A6607F2DD3
:100244006E2D992788270BE20C94CE0201E4C0D1CD
:10025400CED10E94D6020E940C030DE3002FB8D128
:10026400C6D10E94D6020E940C03A7FD0C94A301E0
:1002740002E4AED1BCD10E94D6020E940C03A6FDBA
:100284000C94310203E4A4D1B2D10E94D6020E949C
:100294000C0377FF0C9458010DE29AD1A8D10E9467
:1002A400D6020E940C0370956195A5600AE044276C
:1002B4000F934F938F939F931F9310EF062F472F06
:1002C400802F942F0817490718F0880F991FFACF29
:1002D40000174407B8F00817490720F0081B490B1A
:1002E4001395F6CF17FF0F9300E3010F002F70D182
:1002F4007ED10E94D6020E940C030F91112786958D
:100304009795E6CF0F9300E3000F002F61D16FD1D3
:100314000E94D6020E940C030F9103E259D167D1C7
:100324000E94D6020E940C031F919F918F914F91BE
:100334000F91A5FD02C00C94AA02709561950C94CE
:10034400AA0209E445D153D10E94D6020E940C03AB
:100354000EE63ED14CD10E94D6020E940C0303E665
:1003640037D145D10E94D6020E940C030FE630D14A
:100374003ED10E94D6020E940C0302E729D137D154
:100384000E94D6020E940C0302E722D130D10E94BF
:10039400D6020E940C0305E61BD129D10E94D60285
:1003A4000E940C0303E614D122D10E94D6020E94BB
:1003B4000C0304E70DD11BD10E94D6020E940C034A
:1003C40000E206D114D10E94D6020E940C0305E675
:1003D400FFD00DD10E94D6020E940C0308E7F8D08A
:1003E40006D10E94D6020E940C0300E7F1D0FFD090
:1003F4000E94D6020E940C0302E7EAD0F8D00E94C1
:10040400D6020E940C0305E6E3D0F1D00E94D60286
:100414000E940C0303E7DCD0EAD00E94D6020E94BB
:100424000C0303E7D5D0E3D00E94D6020E940C034C
:1004340009E6CED0DCD00E94D6020E940C030FE65F
:10044400C7D0D5D00E94D6020E940C030EE6C0D0BD
:10045400CED00E94D6020E940C030C94AA020FE490
:10046400B7D0C5D00E94D6020E940C0306E7B0D0D4
:10047400BED00E94D6020E940C0305E6A9D0B7D0D4
:100484000E94D6020E940C0302E7A2D0B0D00E94C0
:10049400D6020E940C0306E69BD0A9D00E94D60285
:1004A4000E940C030CE694D0A2D00E94D6020E94B3
:1004B4000C030FE68DD09BD00E94D6020E940C0341
:1004C40007E786D094D00E94D6020E940C0300E273
:1004D4007FD08DD00E94D6020E940C030FE678D004
:1004E40086D00E94D6020E940C0303E671D07FD00E
:1004F4000E94D6020E940C0303E66AD078D00E94C0
:10050400D6020E940C0305E763D071D00E94D60284
:100514000E940C0302E75CD06AD00E94D6020E94BB
:100524000C0302E755D063D00E94D6020E940C034C
:1005340005E64ED05CD00E94D6020E940C0304E66D
:1005440047D055D00E94D6020E940C030C94AA02F4
:10055400AA270895213049F0A760203019F003E25A
:100564000C94CE020AE20C94CE020F934F93F92E10
:10057400E82E002797FD0395EE0CFF1CEE0CFF1CE4
:10058400EE0CFF1C880F991F8E0D9F1D00FD9760B8
:100594004F910F91AA7F00E3002F1AD028D00E9418
:1005A400D6020E940C0308955395503129F407E0B4
:1005B40004D01DD00E940C03089501BB0000169ABC
:1005C40000000000000016980000000000000895DC
:1005D40001BB179A000000000000169A00000000FA
:1005E40000001698000000000000179808950F936B
:1005F400002700BB01BB159A0000169A00000000FA
:1006040000000FB1169807FDF7CF15980FEF00BB48
:100614000F9108958F938EE104D08A95E9F78F9115
:1006240008958F939F939CE98CE30197F1F79F9131
:0A0634008F910000000000000895FF
:00000001FF
