:020000020000FC
:100000000C9472000C9423010C9436010C943D0165
:04005C000C94D5002B
:1000E4000FEF0DBF01E20EBF0FEF0DB900E000935B
:1000F4009A00002700939B0001E00093910001E225
:100104000093900078940FEF07B90FEF00BB01B98B
:10011400002701BB02B908E3BBD0D4D008E3B8D0B0
:10012400D1D008E3B5D0CED008E3B2D0CBD008E02C
:10013400AFD0C8D001E0ACD0C5D006E0A9D0C2D0C1
:100144000EE0A6D0BFD000270AB90BB90AE200938B
:1001540069000DB307600DBB00E004BD02E005BDFE
:1001640001E000936E00789424E111270C94BA0006
:10017400FFCF7F9D702D812D089502E089D0A2D0FC
:100184000C2D91D09FD00D2D8ED09CD00E2D8BD0C8
:1001940099D002E788D096D00FE285D093D003E7B8
:1001A40082D090D008954FB74F93DF93CF939F930E
:1001B4008F93809100029091010201968D3043E06B
:1001C4009407A1F5D6DF0F936627072F372F982FB3
:1001D400A4E60A1724F00A1B6395302FFACFA4363D
:1001E40021F0AA3039F0A13051F0C62EAAE0032F35
:1001F4006627EFCFD62EA1E0032F6627EACFE62E9F
:100204006627913031F432E0C30E35E0D30E36E088
:10021400E30E0F9140E3C40ED40EE40EAEDF772755
:10022400C0E0D2E000270993088304C08093000251
:10023400909301028F919F91CF91DF914F914FBF86
:1002440018950F930FB70F93143611F0120F00C0C7
:100254004CD018B910939A00002700939B000F917B
:100264000FBF0F9142D018950F930FB70F93103013
:1002740079F3121BEDCF5F935FB75F93B39454E0B0
:10028400B51611F4BB2473955F915FBF5F91189508
:1002940001BB0000169A0000000000001698000040
:1002A40000000000089501BB179A00000000000040
:1002B400169A0000000000001698000000000000DC
:1002C400179808950F93002700BB01BB159A0000EF
:1002D400169A0000000000000FB1169807FDF7CF32
:1002E40015980FEF00BB0F9108958F939F939CE98E
:1002F4008CE30197F1F79F918F91000000000000BB
:0203040008955A
:00000001FF
