:020000020000FC
:100000000C9406000C9419000C9429000FEF0DBFFE
:1000100001E20EBF0FEF07B9002708B90AB90BB903
:100020000AE0009369000DB303600DBB78940C9453
:100030003900239520FD18950F930FB70F9308B142
:100040000A9507FD0FE008B90F910FBF0F9115D06A
:100050001895239520FD18950F930FB70F9308B1AE
:10006000039504FD002708B90F910FBF0F9105D02C
:10007000189522270F6008B9FFCF7F9374E67A9511
:1000800004D07030E1F77F9108958F939F939EE4A1
:100090008CE10197F1F79F918F9100000000000023
:0200A0000895C1
:00000001FF
