:020000020000FC
:040000000C947200EA
:1000E4000FEF0DBF01E20EBF00EF00930A010FEF07
:1000F40000BB01B9002701BB02B908E36CD085D06D
:1001040008E369D082D008E366D07FD008E363D0E7
:100114007CD008E360D079D008E05DD076D001E0EF
:100124005AD073D006E057D070D00EE054D06DD0C2
:1001340055273FEE222730930B010FEF0A95F1F775
:10014400009109010F700F3061F031E01127402F49
:10015400432319F40DD00C949B001395330F0C9486
:10016400A900233031F30894331F23950C949D0088
:10017400233059F0133081F0012F000F010F020FCB
:10018400039540E3040F0C94D90000270395010F55
:1001940040E4040F0C94D900203029F0213031F0D0
:1001A40003E20C94D9000AE20C94D90000E3002F76
:1001B4001DD02BD05395503141F0503209F008C076
:1001C40002E009D022D0552703C000EC04D01DD092
:1001D4000E941A01089501BB0000169A0000000055
:1001E40000001698000000000000089501BB179A53
:1001F400000000000000169A00000000000016989D
:10020400000000000000179808950F93002700BB1A
:1002140001BB159A0000169A0000000000000FB1FF
:10022400169807FDF7CF15980FEF00BB0F910895AF
:100234008F938EE104D08A95E9F78F9108958F9377
:100244009F939CE98CE30197F1F79F918F910000B4
:0602540000000000089507
:00000001FF
