:020000020000FC
:100000000C940B000C9406000C9406000F930FEF59
:10001000502E0F911895E0E0F2E0C4E6D2E00BE933
:100020000DBF01E20EBF00EF00930A010FEF00BB0E
:1000300001B9002701BB02B908E321D53AD508E38D
:100040001ED537D508E31BD534D508E318D531D5EF
:1000500008E315D52ED508E012D52BD501E00FD534
:1000600028D506E00CD525D50EE009D522D50FEF11
:1000700007B9002708B900270AB90BB90AE00093AD
:1000800069000DB303600DBBF8940FEF0DB9009339
:10009000010100E00093AC0000270093AD0001E0F7
:1000A0000093A10009E00093A000789403E5019378
:1000B00004E5019301E4019304E5019309E401934C
:1000C0000FE401930EE4019300E2019301E3019335
:1000D00001E2019303E5019304E5019301E4019337
:1000E00004E5019309E401930FE401930EE4019305
:1000F00000E2019302E3019301E2019305E0099319
:1001000003E00993E0E0F2E0C4E6D2E0002782E0F9
:1001100002E0602E0C948C000E94BA010E944E01F5
:100120000E94AE020E942A030E943B020E947A04AF
:100130000C9496003FEE222730930B010FEF0A95A7
:10014000F1F7009109010F700F3051F031E01127E4
:10015000402F432309F408951395330F0C94A800FE
:10016000233041F30894331F23950C949C002330D3
:10017000A9F01330A9F0012F000F010F020F039512
:10018000503009F4992432E0931641F04AE0549F2C
:10019000502D500F40E3040F0C94EA0001E0089545
:1001A000203021F0213069F001E008955B30D0F477
:1001B0005030C1F0639595D401E061D47AD4002722
:1001C0000895503059F332E0931641F34AE0549FBA
:1001D000502D00E39394002F5DD46BD40E947105E1
:1001E00001E0089502E008950C9438012330E1F312
:1001F0001330F9F0543069F1012F000F010F020F95
:100200000395013031F10250402F000F040F41E4FB
:10021000040F412F440F410F420F4395483008F01F
:100220000395533039F1050F44277A3069F50C9462
:100230002901213021F0203079F00C94290100E0CF
:10024000F01611F4FA94F8B800E27A30E9F40C945C
:10025000290154E04DD408950AE0472F041B40E2E1
:10026000003019F041930A95E9F77AE20C942901DC
:10027000512F0895473068F3483059F3050F44274C
:100280007A3011F40C942901F394F8B80193002FFB
:1002900001D40FD426D4739508950895E0E0F2E0D8
:1002A00054E060E07727FF246817B9F37727639558
:1002B00001E0E5D3FED303E5EDD3FBD304E5EAD3B8
:1002C000F8D301E4E7D3F5D304E5E4D3F2D309E4AA
:1002D000E1D3EFD30FE4DED3ECD30EE4DBD3E9D3E9
:1002E00000E2D8D3E6D300E3060F002FD3D3E1D347
:1002F00000E2D0D3DED30EE4CDD3DBD301E4CAD306
:10030000D8D30DE4C7D3D5D305E4C4D3D2D30AE3FD
:10031000C1D3CFD300ECB3D3CCD36A950C94900166
:1003200009DF64DF7A32E1F701E0F01624F063952B
:10033000D3D30C9453013A977AE000E201937A9573
:10034000E1F73A9701E09BD3B4D305E4A3D3B1D34B
:1003500002E7A0D3AED302E79DD3ABD30FE69AD387
:10036000A8D302E797D3A5D300E294D3A2D3B4D302
:100370009ACF089566276130E1F3552701E07FD3D6
:1003800098D30EE487D395D305E784D392D30DE6B3
:1003900081D38FD302E67ED38CD305E67BD389D37A
:1003A00002E778D386D300E275D383D30FE672D306
:1003B00080D306E66FD37DD300EC61D37AD303E517
:1003C00069D377D304E766D374D301E663D371D3DB
:1003D00004E760D36ED309E65DD36BD30FE65AD33F
:1003E00068D30EE657D365D303E754D362D30AE349
:1003F00051D35FD30C94FC019DDEB9DE0130E1F3F3
:10040000023021F05230C8F0852FB5CF01E037D34C
:1004100050D305E43FD34DD302E73CD34AD302E7A0
:1004200039D347D30FE636D344D302E733D341D38E
:1004300000E230D33ED355D39ECF01E020D339D351
:1004400005E428D336D302E725D333D302E722D3FA
:1004500030D30FE61FD32DD302E71CD32AD300E2FB
:1004600019D327D30CE316D324D302E313D321D318
:1004700033D3662780CF01E002D31BD300E50AD334
:1004800018D32FD30CE406D314D32BD305E402D313
:1004900010D327D301E4FED20CD323D303E5FAD241
:1004A00008D31FD305E4F6D204D31BD300E2F2D263
:1004B00000D307E5EFD2FDD214D301E4EBD2F9D299
:1004C00010D309E4E7D2F5D20CD304E5E3D2F1D29C
:1004D00008D300ECD4D2EDD20CE4DCD2EAD201D3C2
:1004E0000FE4D8D2E6D2FDD201E4D4D2E2D2F9D2DE
:1004F00004E4D0D2DED2F5D209E4CCD2DAD2F1D201
:100500000EE4C8D2D6D2EDD207E4C4D2D2D2E9D218
:10051000442743950DE2BED2CCD200E1B0D2C9D27D
:10052000DBD20FE2B7D2C5D200E1A9D2C2D2D4D277
:100530000CE7B0D2BED200E1A2D2BBD2CDD20DEC3C
:10054000A9D2B7D200E19BD2B4D2C6D2413008F3CF
:1005500008956A91C4E6D2E06883089501E08FD2DD
:10056000A8D2699166276817A1F3552704E592D2AE
:10057000A0D209E68FD29DD20DE68CD29AD205E6A2
:1005800089D297D200E286D294D206E683D291D263
:1005900002E780D28ED20FE67DD28BD20DE67AD2E0
:1005A00088D200E277D285D200EC69D282D203E50C
:1005B00071D27FD240E3460F00E3401B481708F09A
:1005C000481B439500E3400F042F64D272D200E22F
:1005D00061D26FD204E75ED26CD20FE65BD269D2F1
:1005E00000E258D266D203E555D263D200E3401B45
:1005F000481708F0481B439500E3400F042F4AD2E8
:1006000058D20AE347D255D20C94060393DDAFDDEE
:100610000130E1F3023011F05993A5CF01E02FD260
:1006200048D205E437D245D202E734D242D202E7BB
:1006300031D23FD20FE62ED23CD202E72BD239D2B2
:1006400000E228D236D24DD200EC19D232D20C942C
:10065000B302089566276130E1F3552701E00FD218
:1006600028D203E517D225D204E714D222D20FE60E
:1006700011D21FD200E70ED21CD200E20BD219D247
:1006800004E708D216D209E605D213D20DE602D24B
:1006900010D205E6FFD10DD200E2FCD10AD209E664
:1006A000F9D107D203E7F6D104D200E2F3D101D2A7
:1006B00000ECE5D1FED100E2EDD1FBD100E2EAD1C0
:1006C000F8D100E2E7D1F5D103E7E4D1F2D105E6B4
:1006D000E1D1EFD103E6DED1ECD10FE6DBD1E9D1F8
:1006E0000EE6D8D1E6D104E6D5D1E3D103E7D2D1E5
:1006F000E0D1442700E1C3D1DCD143954A30D0F3A7
:100700000C94820317DD33DD0130E1F35B3020F41C
:10071000523010F1652E9FCF01E0B1D1CAD105E46E
:10072000B9D1C7D102E7B6D1C4D102E7B3D1C1D1A3
:100730000FE6B0D1BED102E7ADD1BBD100E2AAD164
:10074000B8D10EE3A7D1B5D101E3A4D1B2D100E372
:10075000A1D1AFD1C1D17FCF01E091D1AAD105E420
:1007600099D1A7D102E796D1A4D102E793D1A1D123
:100770000FE690D19ED102E78DD19BD100E28AD1C4
:1007800098D10CE387D195D102E384D192D1A4D141
:10079000662761CF00EC73D18CD105E47BD189D180
:1007A000A7D10DE477D185D1A3D105E473D181D14F
:1007B0009FD102E56FD17DD19BD107E46BD179D177
:1007C00097D105E467D175D193D10EE463D171D18E
:1007D0008FD103E45FD16DD18BD109E55BD169D1B4
:1007E00087D100E257D165D183D103E553D161D1DF
:1007F0007FD104E54FD15DD17BD10FE44BD159D1ED
:1008000077D100E547D155D173D1CF92CC2400E008
:100810000093AC000093AD004F933FEB30930B017E
:100820000FEF4A95F1F7409109014F704F3041F0B9
:1008300038E0432329F40FEF002F08B94DD101C050
:1008400000274F9100FD0FC053D1C39404E1C0169F
:1008500018F303E008B901E2C016F0F200E008B9AD
:1008600000E0C02ED9CF00E00093AC000027009339
:10087000AD00CF9000EC03D11CD100E20BD119D117
:1008800000E208D116D100E205D113D100E202D175
:1008900010D100E2FFD00DD100E2FCD00AD100E27D
:1008A000F9D007D100E2F6D004D100E2F3D001D1B3
:1008B00000E2F0D0FED000E2EDD0FBD000E2EAD0C2
:1008C000F8D000E2E7D0F5D000E2E4D0F2D000E2C8
:1008D000E1D0EFD000E2DED0ECD000ECD0D0E9D017
:1008E000222423940FEFD6D0E4D02314D1F70AEAC0
:1008F00008B9089501E0C3D0DCD0E0E0F2E0C4E63E
:10090000D2E0772473943A9609910991802E01E000
:10091000B6D0CFD00EE4BED0CCD0EAD005E4BAD069
:10092000C8D0E6D008E5B6D0C4D0E2D004E5B2D055
:10093000C0D0DED00AE3AED0BCD011240191002F8C
:10094000A9D0B7D013940AE01016C0F3C5D07394A1
:10095000781628F0E0E0F2E0C4E6D2E07724FF92D7
:10096000EF92DF92789400E00093AC0000270093B0
:10097000AD000AEA08B9332400EC81D09AD00FEF19
:1009800089D097D0E82C339404E6F02E06B1009578
:1009900008B9AED04F933FEB30930B010FEF4A9560
:1009A000F1F7409109014F704F3041F038E0432397
:1009B00029F40FEF002F08B98FD001C000274F9105
:1009C00000FDE8DEFA9429F70FEF64D072D0EA94C4
:1009D000D1F6002708B9F894DF90EF90FF900FEF61
:1009E000051511F40C94F6040C943B0501E047D076
:1009F00060D004E54FD05DD002E54CD05AD001E480
:100A000049D057D009E446D054D00EE443D051D059
:100A100000E240D04ED003E53DD04BD004E53AD0C3
:100A200048D00FE437D045D000E534D042D000E5BF
:100A300031D03FD009E42ED03CD00EE42BD039D0B9
:100A400007E428D036D000EC1AD033D0002700932A
:100A5000AC000093AD00F62CEE24002708B904E6A4
:100A6000E02E06B1039508B943D0EA94D1F7FA9481
:100A7000B1F700E0502E0991802E0C94870401BB41
:100A80000000169A00000000000016980000000008
:100A90000000089501BB179A000000000000169A9C
:100AA00000000000000016980000000000001798E9
:100AB00008950F93002700BB01BB159A0000169AFA
:100AC0000000000000000FB1169807FDF7CF159841
:100AD0000FEF00BB0F91089504D003D002D008D0CF
:100AE00008958F938EE104D08A95E9F78F91089548
:100AF0008F939F939CE98CE30197F1F79F918F91DE
:080B0000000000000000089550
:00000001FF
