:020000020000FC
:040000000C947200EA
:1000E4000FEF0DBF01E20EBF0FEF07B908B900EF24
:1000F40000930A010FEF00BB01B9002701BB02B94D
:1001040000E33BD154D100E338D151D100E335D1E0
:100114004ED100E332D14BD100E32FD148D108E0D6
:100124002CD145D101E029D142D106E026D13FD1DD
:100134000EE023D13CD1AA275527662777278827A5
:1001440099273FEE222730930B010FEF0A95F1F721
:10015400009109010F700F3061F031E01127402F39
:10016400432319F40DD00C94A3001395330F0C946E
:10017400B100233031F30894331F23950C94A50068
:10018400233021F1133021F1012F000F010F020F51
:1001940003950F934F93F82EE72E002787FD0395C1
:1001A400EE0CFF1CEE0CFF1CEE0CFF1C770F881FDF
:1001B4007E0D8F1D00FD80684F910F91700F4427B5
:1001C400741F9F7E40E3040F0C94A3010C9412014E
:1001D40020FD0C94F9000E94AC0190689061002706
:1001E400442721FF0AE221FD03E20C94A3019F7E30
:1001F4000F934F93F82EE72E002787FD0395EE0CFF
:10020400FF1CEE0CFF1CEE0CFF1C770F881F7E0DED
:100214008F1D00FD80684F910F9100E30C94A301A2
:100224000E94AC0195FD90689061113059F0103036
:1002340029F0123061F0906804E481C093600DE20B
:100244000C94A101986098B90BE20C94A1010DE300
:100254009FD0ADD08CD095FD0C944B0197FD0C94A0
:100264004B0196FD0C94590167FD0C943F010FE37B
:100274008FD09DD07CD00C949F010DE289D097D073
:1002840076D0609551950FE383D091D070D00C94C3
:100294009F0109E47DD08BD06AD00EE679D087D057
:1002A40066D003E675D083D062D00C949F010FE42E
:1002B4006FD07DD05CD006E76BD079D058D005E6FE
:1002C40067D075D054D002E763D071D050D006E621
:1002D4005FD06DD04CD00CE65BD069D048D00FE62F
:1002E40057D065D044D007E753D061D040D000E266
:1002F4004FD05DD03CD00FE64BD059D038D003E678
:1003040047D055D034D003E643D051D030D005E7A0
:100314003FD04DD02CD002E73BD049D028D002E7C3
:1003240037D045D024D005E633D041D020D004E6E0
:100334002FD03DD01CD00C949F010C94A8010C9498
:10034400A301002F25D033D012D04BD00E94EC0152
:1003540098B9089594FD570F681F0BF4906293FDAC
:10036400571B680B0BF49062977F9B7F0895A395AE
:10037400A5FD07E002D01BD0089501BB0000169A2A
:10038400000000000000169800000000000008951E
:1003940001BB179A000000000000169A000000003C
:1003A40000001698000000000000179808950F93AD
:1003B400002700BB01BB159A0000169A000000003C
:1003C40000000FB1169807FDF7CF15980FEF00BB8B
:1003D4000F9108958F938EE104D08A95E9F78F9158
:1003E40008958F939F939CE98CE30197F1F79F9174
:0A03F4008F91000000000000089542
:00000001FF
