:020000020000FC
:040000000C949B00C1
:10005C000C9430000FB70F93DF93CF939F938F9334
:10006C000F931F93809102029091030201968E349C
:10007C0000E09007B9F488279927022F0F700930F8
:10008C0011F023951DC0207F022F007F003518F43E
:10009C0000E1200F15C02227032F0F70093021F02B
:1000AC0033950EC00C948E00307F032F007F0035EB
:1000BC0018F400E1300F04C000272070307000C02D
:1000CC0002E05FD078D0032F06950695069506952D
:1000DC0010E3010F002F60D06ED010E3032F0F70D0
:1000EC00010F002F59D067D00AE356D064D0022FED
:1000FC00069506950695069510E3010F002F4CD03A
:10010C005AD010E3022F0F70010F002F45D053D09F
:10011C0080930202909303021F910F918F919F91F4
:10012C00CF91DF910F910FBF18950FEF0DBF01E22B
:10013C000EBF0FEF00BB01B9002701BB02B933277B
:10014C00222708E31ED037D008E31BD034D008E0B8
:10015C0018D031D001E015D02ED006E012D02BD023
:10016C000EE00FD028D0002704BD02E005BD01E051
:10017C0000936E00C2E0D2E000270993088300C010
:10018C00FFCF01BB0000169A00000000000016987B
:10019C00000000000000089501BB179A0000000049
:1001AC000000169A000000000000169800000000E5
:1001BC000000179808950F93002700BB01BB159AF8
:1001CC000000169A0000000000000FB1169807FD01
:0C01DC00F7CF15980FEF00BB0F910895AE
:00000001FF
